:100000000C945D000C9485000C9485000C94850084
:100010000C9485000C9485000C9485000C9485004C
:100020000C9485000C9485000C9485000C9485003C
:100030000C9485000C9485000C9485000C9485002C
:100040000C94CE040C9485000C949C040C947604BF
:100050000C9485000C9485000C9485000C9485000C
:100060000C9485000C94850000000008000201003B
:100070000003040700000000000000000000000072
:10008000250028002B0000000000240027002A0083
:10009000040404040404040402020202020203032E
:1000A0000303030301020408102040800102040836
:1000B0001020010204081020180511241FBECFEFE4
:1000C000D8E0DEBFCDBF11E0A0E0B1E0EAE0FEE0A5
:1000D00002C005900D92A633B107D9F721E0A6E33F
:1000E000B1E001C01D92AA3FB207E1F710E0CDE5F3
:1000F000D0E004C02197FE010E94E206CC35D10772
:10010000C9F70E9479050C9403070C94000090E055
:10011000FC01EC55FF4F249180579F4FFC018491C7
:10012000882399F090E0880F991FFC01EA57FF4F50
:10013000A591B491FC01E458FF4F859194918FB73C
:10014000F894EC91E22BEC938FBF089580E48093B8
:100150007C0080917A00806480937A0080917A009C
:1001600086FDFCCF80917800909179000895AF9240
:10017000BF92CF92DF92EF92FF920F931F93CF9394
:10018000DF936C017B018B01040F151FEB015E01F6
:10019000AE18BF08C017D10759F06991D601ED918B
:1001A000FC910190F081E02DC6010995892B79F72A
:1001B000C501DF91CF911F910F91FF90EF90DF90DC
:1001C000CF90BF90AF900895FC01538D448D252FA3
:1001D00030E0842F90E0821B930B541710F0CF96E1
:1001E000089501970895FC01918D828D981761F013
:1001F000A28DAE0FBF2FB11D5D968C91928D9F5F2A
:100200009F73928F90E008958FEF9FEF0895FC0108
:10021000918D828D981731F0828DE80FF11D858DBB
:1002200090E008958FEF9FEF0895FC01918D228D4E
:10023000892F90E0805C9F4F821B91098F739927D3
:10024000089583E491E00E94150121E0892B09F4CF
:1002500020E0822F089580E090E0892B29F00E9411
:10026000210181110C9400000895FC01A48DA80FB8
:10027000B92FB11DA35ABF4F2C91848D90E00196E8
:100280008F739927848FA689B7892C93A089B18908
:100290008C91837080648C93938D848D981306C0A9
:1002A0000288F389E02D80818F7D80830895EF920D
:1002B000FF920F931F93CF93DF93EC0181E0888F20
:1002C0009B8D8C8D98131AC0E889F989808185FFF0
:1002D00015C09FB7F894EE89FF896083E889F98992
:1002E00080818370806480839FBF81E090E0DF9194
:1002F000CF911F910F91FF90EF900895F62E0B8DE7
:1003000010E00F5F1F4F0F731127E02E8C8D8E11A1
:100310000CC00FB607FCFACFE889F989808185FF08
:10032000F5CFCE010E943501F1CFEB8DEC0FFD2F03
:10033000F11DE35AFF4FF0829FB7F8940B8FEA89C3
:10034000FB8980818062CFCFCF93DF93EC01888DD2
:100350008823B9F0AA89BB89E889F9898C9185FD40
:1003600003C0808186FD0DC00FB607FCF7CF8C91CE
:1003700085FFF2CF808185FFEDCFCE010E94350150
:10038000E9CFDF91CF91089590E0FC01E859FF4F4C
:100390002491FC01EC55FF4F3491FC01E057FF4FD5
:1003A000E491EE23C9F0222339F0233001F1A8F4BF
:1003B000213019F1223029F1F0E0EE0FFF1FE4584F
:1003C000FF4FA591B4918FB7F894EC91611126C0BD
:1003D00030953E233C938FBF08952730A9F02830F5
:1003E000C9F0243049F7809180008F7D03C080914F
:1003F00080008F7780938000DFCF84B58F7784BDB6
:10040000DBCF84B58F7DFBCF8091B0008F77809359
:10041000B000D2CF8091B0008F7DF9CF3E2BDACFE4
:10042000CF93DF93EC018091E8019091E90102976D
:1004300049F4C130D10509F43BC06CF560E0209768
:1004400009F437C08091E8019091E901049749F4DB
:10045000C130D10509F45CC00CF037C0209709F415
:1004600042C08091E8019091E901059709F0E5C04B
:10047000CA30D10508F0E1C0FE01EF5BFD4F0C94DE
:10048000E206A002AC02BD02D302EE02F002F702C5
:10049000030314031B03C230D105A9F060E0C3308D
:1004A000D10581F68091EC010E94C40160E006C094
:1004B00061E08091EC010E94C40161E08091EE0155
:1004C0000E94C401BFCF61E0EDCFC230D10539F148
:1004D000C330D10509F0C5CF61E08091EC010E94E5
:1004E000C40160E022C061E08091EC010E94C4017F
:1004F00060E08091EE010E94C40161E08091F00112
:100500000E94C40160E08091F2010E94C401A9CF61
:1005100060E08091EC010E94C40161E0EACF60E0FC
:100520008091EC010E94C40161E08091EE010E9483
:10053000C40160E08091F0010E94C40161E0E3CF5A
:1005400060E08091EC010E94C40161E08091EE01C5
:100550000E94C40161E00BC060E08091EC010E9448
:10056000C40161E08091EE010E94C40160E08091CD
:10057000F0010E94C40160E010C060E08091EC01D5
:100580000E94C40161E08091EE010E94C40160E01C
:100590008091F0010E94C40161E08091F2010E940B
:1005A000C40161E015C060E08091EC010E94C401CB
:1005B00061E08091EE010E94C40160E08091F00151
:1005C0000E94C40161E08091F2010E94C40160E0D8
:1005D0008091F401DF91CF910C94C40161E0E4CFEC
:1005E00061E08091EC010E94C40160E0E2CF61E033
:1005F0008091EC010E94C40160E08091EE010E94B4
:10060000C40161E0DBCF61E08091EC010E94C40194
:1006100060E08091EE010E94C40161E08091F001F0
:100620000E94C40160E0CFCF61E08091EC010E94A4
:10063000C40160E08BCF60E0F8CFDF91CF910895E7
:100640008F929F92AF92BF92EF92FF920F931F9360
:10065000CF93DF938C0161E089E00E94C40161E0E7
:100660008AE00E94C401E80117FF04C0CC27DD27FF
:10067000C01BD10B101611060CF082C081E090E077
:100680009093E1018093E00104E010E05AE0E52E50
:10069000F12C209709F490C03FB7F894809136016F
:1006A00090913701A0913801B091390126B5A89BEE
:1006B00005C02F3F19F00196A11DB11D3FBFBA2FF4
:1006C000A92F982F8827820F911DA11DB11D42E0EF
:1006D000880F991FAA1FBB1F4A95D1F74091F601B9
:1006E0005091F7016091F8017091F9014C015D01A1
:1006F000841A950AA60AB70A4091E2015091E301D3
:100700006091E4017091E50184169506A606B7068E
:1007100008F4BFCF8093F6019093F701A093F801FE
:10072000B093F9018091EA019091EB012091E001F1
:100730003091E1012130310559F501969093EB019B
:100740008093EA012091E6013091E7018217930737
:1007500021F41092EB011092EA0121978091EA01B5
:100760009091EB012091E8013091E901B70125302A
:10077000310509F0B8010E94CE060E94100289CF0F
:10078000012B09F481CF1092E1011092E0017CCF9E
:10079000892B41F48091E6019091E7019093EB0160
:1007A0008093EA018091EA019091EB010197909387
:1007B000EB018093EA01D1CF60E089E00E94C4019F
:1007C00060E08AE0DF91CF911F910F91FF90EF9051
:1007D000BF90AF909F908F900C94C401FC0101904A
:1007E0000020E9F73197AF01481B590BBC0183E4A6
:1007F00091E00C94B7008F929F92AF92BF92CF92EC
:10080000DF92EF92FF920F931F93CF93DF93CDB7B9
:10081000DEB7A1970FB6F894DEBF0FBECDBF6B0158
:100820007C01F7FE41C06DE283E491E00E94570134
:100830008C0122273327A9012C193D094E095F0994
:1008400019A2CE0181967C019AE0892E912CA12CCF
:10085000B12CCA01B901A50194010E949D06605DF9
:10086000F70162937F01211531054105510589F793
:1008700090E080E0309719F0CF010E94EE03800FE6
:10088000911FA1960FB6F894DEBF0FBECDBFDF91CA
:10089000CF911F910F91FF90EF90DF90CF90BF907D
:1008A000AF909F908F900895AC019B0119A28E018B
:1008B0000F5D1F4F8AE0C82ED12CE12CF12CCA010C
:1008C000B901A70196010E949D06605DF80162933F
:1008D0008F01211531054105510589F790E080E030
:1008E000309779F2CF010E94EE03CBCF1F920F9287
:1008F0000FB60F9211242F933F934F935F936F93F3
:100900007F938F939F93AF93BF93EF93FF9383E472
:1009100091E00E943501FF91EF91BF91AF919F91BE
:100920008F917F916F915F914F913F912F910F9098
:100930000FBE0F901F9018951F920F920FB60F9237
:1009400011242F938F939F93EF93FF93E091530183
:10095000F09154018081E0915901F0915A0182FD9A
:100960001BC0908180915C018F5F8F7320915D012E
:10097000821741F0E0915C01F0E0ED5BFE4F958F56
:1009800080935C01FF91EF919F918F912F910F9038
:100990000FBE0F901F9018958081F4CF1F920F9279
:1009A0000FB60F9211242F933F938F939F93AF9382
:1009B000BF9380913B0190913C01A0913D01B0918A
:1009C0003E0130913A0123E0230F2D3758F501966F
:1009D000A11DB11D20933A0180933B0190933C01EE
:1009E000A0933D01B0933E01809136019091370173
:1009F000A0913801B09139010196A11DB11D8093DC
:100A0000360190933701A0933801B0933901BF911B
:100A1000AF919F918F913F912F910F900FBE0F90AB
:100A20001F90189526E8230F0296A11DB11DD2CF65
:100A3000CF93DF93E3E4F1E01382128288EE93E038
:100A4000A0E0B0E084839583A683B78384E091E03F
:100A50009183808385EC90E09587848784EC90E097
:100A60009787868780EC90E0918B808B81EC90E07B
:100A7000938B828B82EC90E0958B848B86EC90E05C
:100A8000978B868B118E128E138E148EC0EED1E052
:100A90001B861A86198218821E8A1F8A188E198E42
:100AA00088EC90E09F838E8388E090E09D878C8720
:100AB0008BE090E09F878E878CE090E0998B888B0D
:100AC0008DE090E09B8B8A8B88E00E9487008E856A
:100AD0000E94870088890E9487008A890E94870077
:100AE0001D8A1C8A84E090E099878887DF91CF91E6
:100AF0000895789484B5826084BD84B5816084BD96
:100B000085B5826085BD85B5816085BD80916E00AB
:100B1000816080936E0010928100809181008260DC
:100B20008093810080918100816080938100809119
:100B300080008160809380008091B1008460809308
:100B4000B1008091B00081608093B00080917A0004
:100B5000846080937A0080917A00826080937A002A
:100B600080917A00816080937A0080917A00806819
:100B700080937A001092C10089E00E9487008AE089
:100B80000E94870060E089E00E94C40160E08AE082
:100B90000E94C4012091E6013091E701032E000C70
:100BA000440B550B60E077E883E993E00E947E06F2
:100BB000CA01B90128E230E040E050E00E947E0620
:100BC0002093E2013093E3014093E4015093E50167
:100BD000E0915301F091540182E08083E0914F0154
:100BE000F09150011082E0915101F09152018FEC8F
:100BF000808310925B01E0915701F091580186E0EB
:100C00008083E0915501F09156018081806180835D
:100C1000E0915501F0915601808188608083E091D8
:100C20005501F0915601808180688083E0915501E3
:100C3000F091560180818F7D80830E94A600909361
:100C400042018093410188248A9483E0982EA12C4C
:100C5000B12C00E010E00E94A600EC01809141015F
:100C600090914201DE01A81BB90B28EC30E00E94F4
:100C7000E806A50194010E947E0669017A0182E1DD
:100C800091E00E94EE03BE01DD0F880B990B0E94DC
:100C9000FB0388E191E00E94EE03C701B6010E94C8
:100CA000FB0386E291E00E94EE0380913F01909168
:100CB0004001B601681B790B072E000C880B990BBD
:100CC0000E94FB0383E391E00E94EE0384E690E040
:100CD0000E9420038CE99FEF0E942003D0924001E4
:100CE000C0923F010115110509F4B5CF0E94210101
:100CF000882309F4B0CF0E940000ADCF052E97FBEA
:100D00001EF400940E94950657FD07D00E949D0690
:100D100007FC03D04EF40C94950650954095309501
:100D200021953F4F4F4F5F4F089590958095709557
:100D300061957F4F8F4F9F4F0895A1E21A2EAA1BF6
:100D4000BB1BFD010DC0AA1FBB1FEE1FFF1FA2177B
:100D5000B307E407F50720F0A21BB30BE40BF50B78
:100D6000661F771F881F991F1A9469F76095709501
:100D7000809590959B01AC01BD01CF010895A29F84
:100D8000B001B39FC001A39F700D811D1124911D5F
:100D9000B29F700D811D1124911D089597FB072EA0
:100DA00016F4009407D077FD09D00E94EF0607FCE7
:100DB00005D03EF4909581959F4F0895709561956B
:100DC0007F4F0895EE0FFF1F0590F491E02D0994D9
:100DD0000E94BF06B7FF0895821B930B0895AA1BBC
:100DE000BB1B51E107C0AA1FBB1FA617B70710F016
:100DF000A61BB70B881F991F5A95A9F78095909548
:0A0E0000BC01CD010895F894FFCF66
:100E0A00000000005701B700E400A4011501F30037
:100E1A000701506F743A20002C20506F74205374CD
:100E2A006570733A20002C206375722D7072657696
:060E3A003A20000D0A0041
:00000001FF
